{
  "_format": "hh-sol-artifact-1",
  "contractName": "KYC",
  "sourceName": "contracts/KYC.sol",
  "abi": [
    {
      "inputs": [
        {
          "internalType": "string",
          "name": "_password",
          "type": "string"
        }
      ],
      "stateMutability": "nonpayable",
      "type": "constructor"
    },
    {
      "inputs": [
        {
          "internalType": "address",
          "name": "_address",
          "type": "address"
        }
      ],
      "name": "addCustomer",
      "outputs": [],
      "stateMutability": "nonpayable",
      "type": "function"
    },
    {
      "inputs": [],
      "name": "admin_address",
      "outputs": [
        {
          "internalType": "address",
          "name": "",
          "type": "address"
        }
      ],
      "stateMutability": "view",
      "type": "function"
    },
    {
      "inputs": [],
      "name": "admin_password",
      "outputs": [
        {
          "internalType": "string",
          "name": "",
          "type": "string"
        }
      ],
      "stateMutability": "view",
      "type": "function"
    },
    {
      "inputs": [
        {
          "internalType": "address",
          "name": "",
          "type": "address"
        }
      ],
      "name": "admins",
      "outputs": [
        {
          "internalType": "address",
          "name": "adminAddress",
          "type": "address"
        },
        {
          "internalType": "string",
          "name": "adminName",
          "type": "string"
        }
      ],
      "stateMutability": "view",
      "type": "function"
    },
    {
      "inputs": [],
      "name": "bankCount",
      "outputs": [
        {
          "internalType": "uint256",
          "name": "",
          "type": "uint256"
        }
      ],
      "stateMutability": "view",
      "type": "function"
    },
    {
      "inputs": [
        {
          "internalType": "address",
          "name": "_address",
          "type": "address"
        }
      ],
      "name": "bankLogin",
      "outputs": [
        {
          "internalType": "string",
          "name": "",
          "type": "string"
        },
        {
          "internalType": "string",
          "name": "",
          "type": "string"
        },
        {
          "internalType": "string",
          "name": "",
          "type": "string"
        },
        {
          "internalType": "string",
          "name": "",
          "type": "string"
        },
        {
          "internalType": "string",
          "name": "",
          "type": "string"
        }
      ],
      "stateMutability": "view",
      "type": "function"
    },
    {
      "inputs": [
        {
          "internalType": "uint256",
          "name": "",
          "type": "uint256"
        }
      ],
      "name": "bankRequests",
      "outputs": [
        {
          "internalType": "address",
          "name": "",
          "type": "address"
        }
      ],
      "stateMutability": "view",
      "type": "function"
    },
    {
      "inputs": [
        {
          "internalType": "address",
          "name": "",
          "type": "address"
        }
      ],
      "name": "banks",
      "outputs": [
        {
          "internalType": "address",
          "name": "bankAddress",
          "type": "address"
        },
        {
          "internalType": "string",
          "name": "bankName",
          "type": "string"
        },
        {
          "internalType": "string",
          "name": "regNumber",
          "type": "string"
        },
        {
          "internalType": "bool",
          "name": "isVerified",
          "type": "bool"
        }
      ],
      "stateMutability": "view",
      "type": "function"
    },
    {
      "inputs": [
        {
          "internalType": "address",
          "name": "_address",
          "type": "address"
        }
      ],
      "name": "compareAdminAddress",
      "outputs": [
        {
          "internalType": "bool",
          "name": "",
          "type": "bool"
        }
      ],
      "stateMutability": "view",
      "type": "function"
    },
    {
      "inputs": [
        {
          "internalType": "string",
          "name": "_password",
          "type": "string"
        }
      ],
      "name": "comparePassword",
      "outputs": [
        {
          "internalType": "bool",
          "name": "",
          "type": "bool"
        }
      ],
      "stateMutability": "view",
      "type": "function"
    },
    {
      "inputs": [
        {
          "internalType": "string",
          "name": "_name",
          "type": "string"
        },
        {
          "internalType": "string",
          "name": "_regNumber",
          "type": "string"
        }
      ],
      "name": "createBank",
      "outputs": [],
      "stateMutability": "nonpayable",
      "type": "function"
    },
    {
      "inputs": [
        {
          "internalType": "string",
          "name": "_name",
          "type": "string"
        },
        {
          "internalType": "string",
          "name": "_email",
          "type": "string"
        },
        {
          "internalType": "string",
          "name": "_password",
          "type": "string"
        },
        {
          "internalType": "string",
          "name": "_data",
          "type": "string"
        },
        {
          "internalType": "address",
          "name": "_bankAddress",
          "type": "address"
        },
        {
          "internalType": "string",
          "name": "_balance",
          "type": "string"
        }
      ],
      "name": "createCustomer",
      "outputs": [],
      "stateMutability": "nonpayable",
      "type": "function"
    },
    {
      "inputs": [
        {
          "internalType": "address",
          "name": "_to",
          "type": "address"
        },
        {
          "internalType": "uint256",
          "name": "_amount",
          "type": "uint256"
        },
        {
          "internalType": "string",
          "name": "_data",
          "type": "string"
        }
      ],
      "name": "createTransaction",
      "outputs": [],
      "stateMutability": "nonpayable",
      "type": "function"
    },
    {
      "inputs": [
        {
          "internalType": "address",
          "name": "",
          "type": "address"
        }
      ],
      "name": "customers",
      "outputs": [
        {
          "internalType": "address",
          "name": "customerAddress",
          "type": "address"
        },
        {
          "internalType": "string",
          "name": "customerName",
          "type": "string"
        },
        {
          "internalType": "string",
          "name": "customerEmail",
          "type": "string"
        },
        {
          "internalType": "string",
          "name": "password",
          "type": "string"
        },
        {
          "internalType": "string",
          "name": "customerData",
          "type": "string"
        },
        {
          "internalType": "string",
          "name": "isVerified",
          "type": "string"
        },
        {
          "internalType": "address",
          "name": "bankAddress",
          "type": "address"
        },
        {
          "internalType": "string",
          "name": "balance",
          "type": "string"
        }
      ],
      "stateMutability": "view",
      "type": "function"
    },
    {
      "inputs": [
        {
          "internalType": "address",
          "name": "_address",
          "type": "address"
        }
      ],
      "name": "getBankDetails",
      "outputs": [
        {
          "internalType": "string",
          "name": "",
          "type": "string"
        },
        {
          "internalType": "string",
          "name": "",
          "type": "string"
        },
        {
          "internalType": "bool",
          "name": "",
          "type": "bool"
        }
      ],
      "stateMutability": "view",
      "type": "function"
    },
    {
      "inputs": [],
      "name": "getBankRequests",
      "outputs": [
        {
          "internalType": "address[]",
          "name": "",
          "type": "address[]"
        }
      ],
      "stateMutability": "view",
      "type": "function"
    },
    {
      "inputs": [],
      "name": "getBankRequestsAllData",
      "outputs": [
        {
          "components": [
            {
              "internalType": "address",
              "name": "bankAddress",
              "type": "address"
            },
            {
              "internalType": "string",
              "name": "bankName",
              "type": "string"
            },
            {
              "internalType": "string",
              "name": "regNumber",
              "type": "string"
            },
            {
              "internalType": "bool",
              "name": "isVerified",
              "type": "bool"
            },
            {
              "internalType": "address[]",
              "name": "customers",
              "type": "address[]"
            }
          ],
          "internalType": "struct KYC.Bank[]",
          "name": "",
          "type": "tuple[]"
        }
      ],
      "stateMutability": "view",
      "type": "function"
    },
    {
      "inputs": [
        {
          "internalType": "address",
          "name": "_address",
          "type": "address"
        }
      ],
      "name": "getCustomer",
      "outputs": [
        {
          "internalType": "string",
          "name": "",
          "type": "string"
        },
        {
          "internalType": "string",
          "name": "",
          "type": "string"
        },
        {
          "internalType": "string",
          "name": "",
          "type": "string"
        },
        {
          "internalType": "string",
          "name": "",
          "type": "string"
        },
        {
          "internalType": "address",
          "name": "",
          "type": "address"
        },
        {
          "internalType": "string",
          "name": "",
          "type": "string"
        }
      ],
      "stateMutability": "view",
      "type": "function"
    },
    {
      "inputs": [],
      "name": "getCustomerTransaction",
      "outputs": [
        {
          "components": [
            {
              "internalType": "address",
              "name": "from",
              "type": "address"
            },
            {
              "internalType": "address",
              "name": "to",
              "type": "address"
            },
            {
              "internalType": "uint256",
              "name": "amount",
              "type": "uint256"
            },
            {
              "internalType": "string",
              "name": "transactionData",
              "type": "string"
            }
          ],
          "internalType": "struct KYC.Transaction[]",
          "name": "",
          "type": "tuple[]"
        }
      ],
      "stateMutability": "view",
      "type": "function"
    },
    {
      "inputs": [],
      "name": "getCustomers",
      "outputs": [
        {
          "internalType": "address[]",
          "name": "",
          "type": "address[]"
        }
      ],
      "stateMutability": "view",
      "type": "function"
    },
    {
      "inputs": [
        {
          "internalType": "address",
          "name": "_address",
          "type": "address"
        }
      ],
      "name": "getCustomersinABank",
      "outputs": [
        {
          "components": [
            {
              "internalType": "address",
              "name": "customerAddress",
              "type": "address"
            },
            {
              "internalType": "string",
              "name": "customerName",
              "type": "string"
            },
            {
              "internalType": "string",
              "name": "customerEmail",
              "type": "string"
            },
            {
              "internalType": "string",
              "name": "password",
              "type": "string"
            },
            {
              "internalType": "string",
              "name": "customerData",
              "type": "string"
            },
            {
              "internalType": "string",
              "name": "isVerified",
              "type": "string"
            },
            {
              "internalType": "address",
              "name": "bankAddress",
              "type": "address"
            },
            {
              "internalType": "string",
              "name": "balance",
              "type": "string"
            }
          ],
          "internalType": "struct KYC.Customer[]",
          "name": "",
          "type": "tuple[]"
        }
      ],
      "stateMutability": "view",
      "type": "function"
    },
    {
      "inputs": [],
      "name": "getTransactionCount",
      "outputs": [
        {
          "internalType": "uint256",
          "name": "",
          "type": "uint256"
        }
      ],
      "stateMutability": "view",
      "type": "function"
    },
    {
      "inputs": [],
      "name": "getTransactions",
      "outputs": [
        {
          "components": [
            {
              "internalType": "address",
              "name": "from",
              "type": "address"
            },
            {
              "internalType": "address",
              "name": "to",
              "type": "address"
            },
            {
              "internalType": "uint256",
              "name": "amount",
              "type": "uint256"
            },
            {
              "internalType": "string",
              "name": "transactionData",
              "type": "string"
            }
          ],
          "internalType": "struct KYC.Transaction[]",
          "name": "",
          "type": "tuple[]"
        }
      ],
      "stateMutability": "view",
      "type": "function"
    },
    {
      "inputs": [],
      "name": "getVerifiedBanks",
      "outputs": [
        {
          "components": [
            {
              "internalType": "address",
              "name": "bankAddress",
              "type": "address"
            },
            {
              "internalType": "string",
              "name": "bankName",
              "type": "string"
            },
            {
              "internalType": "string",
              "name": "regNumber",
              "type": "string"
            },
            {
              "internalType": "bool",
              "name": "isVerified",
              "type": "bool"
            },
            {
              "internalType": "address[]",
              "name": "customers",
              "type": "address[]"
            }
          ],
          "internalType": "struct KYC.Bank[]",
          "name": "",
          "type": "tuple[]"
        }
      ],
      "stateMutability": "view",
      "type": "function"
    },
    {
      "inputs": [
        {
          "internalType": "address",
          "name": "_address",
          "type": "address"
        }
      ],
      "name": "rejectBank",
      "outputs": [],
      "stateMutability": "nonpayable",
      "type": "function"
    },
    {
      "inputs": [
        {
          "internalType": "address",
          "name": "_address",
          "type": "address"
        }
      ],
      "name": "rejectCustomer",
      "outputs": [],
      "stateMutability": "nonpayable",
      "type": "function"
    },
    {
      "inputs": [],
      "name": "transactionCount",
      "outputs": [
        {
          "internalType": "uint256",
          "name": "",
          "type": "uint256"
        }
      ],
      "stateMutability": "view",
      "type": "function"
    },
    {
      "inputs": [
        {
          "internalType": "uint256",
          "name": "",
          "type": "uint256"
        }
      ],
      "name": "transactions",
      "outputs": [
        {
          "internalType": "address",
          "name": "from",
          "type": "address"
        },
        {
          "internalType": "address",
          "name": "to",
          "type": "address"
        },
        {
          "internalType": "uint256",
          "name": "amount",
          "type": "uint256"
        },
        {
          "internalType": "string",
          "name": "transactionData",
          "type": "string"
        }
      ],
      "stateMutability": "view",
      "type": "function"
    },
    {
      "inputs": [
        {
          "internalType": "address",
          "name": "_address",
          "type": "address"
        },
        {
          "internalType": "string",
          "name": "_balance",
          "type": "string"
        }
      ],
      "name": "updateBalace",
      "outputs": [],
      "stateMutability": "nonpayable",
      "type": "function"
    },
    {
      "inputs": [
        {
          "internalType": "address",
          "name": "_address",
          "type": "address"
        }
      ],
      "name": "verifyBank",
      "outputs": [],
      "stateMutability": "nonpayable",
      "type": "function"
    },
    {
      "inputs": [
        {
          "internalType": "address",
          "name": "_address",
          "type": "address"
        }
      ],
      "name": "verifyCustomer",
      "outputs": [],
      "stateMutability": "nonpayable",
      "type": "function"
    }
  ],
  "bytecode": "0x60806040523480156200001157600080fd5b50604051620063b8380380620063b88339818101604052810190620000379190620003ec565b336000806101000a81548173ffffffffffffffffffffffffffffffffffffffff021916908373ffffffffffffffffffffffffffffffffffffffff16021790555080600190805190602001906200008f9291906200019f565b5060405180604001604052803373ffffffffffffffffffffffffffffffffffffffff1681526020016040518060400160405280600581526020017f41646d696e000000000000000000000000000000000000000000000000000000815250815250600260003373ffffffffffffffffffffffffffffffffffffffff1673ffffffffffffffffffffffffffffffffffffffff16815260200190815260200160002060008201518160000160006101000a81548173ffffffffffffffffffffffffffffffffffffffff021916908373ffffffffffffffffffffffffffffffffffffffff1602179055506020820151816001019080519060200190620001949291906200019f565b5090505050620004a2565b828054620001ad906200046c565b90600052602060002090601f016020900481019282620001d157600085556200021d565b82601f10620001ec57805160ff19168380011785556200021d565b828001600101855582156200021d579182015b828111156200021c578251825591602001919060010190620001ff565b5b5090506200022c919062000230565b5090565b5b808211156200024b57600081600090555060010162000231565b5090565b6000604051905090565b600080fd5b600080fd5b600080fd5b600080fd5b6000601f19601f8301169050919050565b7f4e487b7100000000000000000000000000000000000000000000000000000000600052604160045260246000fd5b620002b8826200026d565b810181811067ffffffffffffffff82111715620002da57620002d96200027e565b5b80604052505050565b6000620002ef6200024f565b9050620002fd8282620002ad565b919050565b600067ffffffffffffffff82111562000320576200031f6200027e565b5b6200032b826200026d565b9050602081019050919050565b60005b83811015620003585780820151818401526020810190506200033b565b8381111562000368576000848401525b50505050565b6000620003856200037f8462000302565b620002e3565b905082815260208101848484011115620003a457620003a362000268565b5b620003b184828562000338565b509392505050565b600082601f830112620003d157620003d062000263565b5b8151620003e38482602086016200036e565b91505092915050565b60006020828403121562000405576200040462000259565b5b600082015167ffffffffffffffff8111156200042657620004256200025e565b5b6200043484828501620003b9565b91505092915050565b7f4e487b7100000000000000000000000000000000000000000000000000000000600052602260045260246000fd5b600060028204905060018216806200048557607f821691505b602082108114156200049c576200049b6200043d565b5b50919050565b615f0680620004b26000396000f3fe608060405234801561001057600080fd5b50600436106101e55760003560e01c8063833ee7201161010f578063d81fcc86116100a2578063f1ba712711610071578063f1ba7127146105cf578063f2e62772146105ed578063f5bfe6221461060b578063f879eb571461063b576101e5565b8063d81fcc8614610545578063daa6b8f114610579578063e1f6048d14610595578063e4da9ebc146105b1576101e5565b8063b77bf600116100de578063b77bf600146104a6578063b97eb2dd146104c4578063c80cb27c146104e0578063cb949e5114610510576101e5565b8063833ee7201461041d57806383920e90146104395780639ace38c214610457578063ad973d741461048a576101e5565b80634a5e9628116101875780636956686c116101565780636956686c146103945780636a505df4146103b25780636da04e64146103ce57806380c3b8c2146103ea576101e5565b80634a5e9628146102fa57806352dffc961461032a57806353af8dd6146103485780635ebbe30914610364576101e5565b80632e7700f0116101c35780632e7700f014610258578063336989ae1461027657806335fab5d5146102ad578063429b62e5146102c9576101e5565b8063101ad1c8146101ea57806315101e02146102085780632cc5c5f11461023a575b600080fd5b6101f2610659565b6040516101ff9190614888565b60405180910390f35b610222600480360381019061021d919061491c565b6106e7565b60405161023193929190614964565b60405180910390f35b6102426108e5565b60405161024f9190614a67565b60405180910390f35b610260610a01565b60405161026d9190614aa2565b60405180910390f35b610290600480360381019061028b919061491c565b610a0b565b6040516102a4989796959493929190614acc565b60405180910390f35b6102c760048036038101906102c2919061491c565b610dc3565b005b6102e360048036038101906102de919061491c565b610fe2565b6040516102f1929190614b74565b60405180910390f35b610314600480360381019061030f919061491c565b6110ae565b6040516103219190614ba4565b60405180910390f35b610332611107565b60405161033f9190614dcd565b60405180910390f35b610362600480360381019061035d919061491c565b6114fb565b005b61037e60048036038101906103799190614e1b565b61165a565b60405161038b9190614e48565b60405180910390f35b61039c611699565b6040516103a99190614dcd565b60405180910390f35b6103cc60048036038101906103c79190614f98565b611b0d565b005b6103e860048036038101906103e3919061491c565b611c38565b005b61040460048036038101906103ff919061491c565b611d3c565b6040516104149493929190614ff4565b60405180910390f35b61043760048036038101906104329190615047565b611ea9565b005b61044161223e565b60405161044e9190615294565b60405180910390f35b610471600480360381019061046c9190614e1b565b6123e5565b60405161048194939291906152b6565b60405180910390f35b6104a4600480360381019061049f919061491c565b6124ed565b005b6104ae612663565b6040516104bb9190614aa2565b60405180910390f35b6104de60048036038101906104d99190615302565b612669565b005b6104fa60048036038101906104f5919061491c565b61292a565b604051610507919061550f565b60405180910390f35b61052a6004803603810190610525919061491c565b613005565b60405161053c96959493929190615531565b60405180910390f35b61055f600480360381019061055a919061491c565b61348d565b6040516105709594939291906155b5565b60405180910390f35b610593600480360381019061058e919061491c565b6138ef565b005b6105af60048036038101906105aa919061562b565b613a4e565b005b6105b9613fa9565b6040516105c69190615294565b60405180910390f35b6105d7614395565b6040516105e49190614a67565b60405180910390f35b6105f5614533565b6040516106029190614e48565b60405180910390f35b6106256004803603810190610620919061569a565b614557565b6040516106329190614ba4565b60405180910390f35b6106436145b0565b6040516106509190614aa2565b60405180910390f35b6001805461066690615712565b80601f016020809104026020016040519081016040528092919081815260200182805461069290615712565b80156106df5780601f106106b4576101008083540402835291602001916106df565b820191906000526020600020905b8154815290600101906020018083116106c257829003601f168201915b505050505081565b6060806000600560008573ffffffffffffffffffffffffffffffffffffffff1673ffffffffffffffffffffffffffffffffffffffff168152602001908152602001600020600101600560008673ffffffffffffffffffffffffffffffffffffffff1673ffffffffffffffffffffffffffffffffffffffff168152602001908152602001600020600201600560008773ffffffffffffffffffffffffffffffffffffffff1673ffffffffffffffffffffffffffffffffffffffff16815260200190815260200160002060030160009054906101000a900460ff168280546107cc90615712565b80601f01602080910402602001604051908101604052809291908181526020018280546107f890615712565b80156108455780601f1061081a57610100808354040283529160200191610845565b820191906000526020600020905b81548152906001019060200180831161082857829003601f168201915b5050505050925081805461085890615712565b80601f016020809104026020016040519081016040528092919081815260200182805461088490615712565b80156108d15780601f106108a6576101008083540402835291602001916108d1565b820191906000526020600020905b8154815290600101906020018083116108b457829003601f168201915b505050505091509250925092509193909250565b606060008054906101000a900473ffffffffffffffffffffffffffffffffffffffff1673ffffffffffffffffffffffffffffffffffffffff163373ffffffffffffffffffffffffffffffffffffffff1614610975576040517f08c379a000000000000000000000000000000000000000000000000000000000815260040161096c906157b6565b60405180910390fd5b60038054806020026020016040519081016040528092919081815260200182805480156109f757602002820191906000526020600020905b8160009054906101000a900473ffffffffffffffffffffffffffffffffffffffff1673ffffffffffffffffffffffffffffffffffffffff16815260200190600101908083116109ad575b5050505050905090565b6000600854905090565b60066020528060005260406000206000915090508060000160009054906101000a900473ffffffffffffffffffffffffffffffffffffffff1690806001018054610a5490615712565b80601f0160208091040260200160405190810160405280929190818152602001828054610a8090615712565b8015610acd5780601f10610aa257610100808354040283529160200191610acd565b820191906000526020600020905b815481529060010190602001808311610ab057829003601f168201915b505050505090806002018054610ae290615712565b80601f0160208091040260200160405190810160405280929190818152602001828054610b0e90615712565b8015610b5b5780601f10610b3057610100808354040283529160200191610b5b565b820191906000526020600020905b815481529060010190602001808311610b3e57829003601f168201915b505050505090806003018054610b7090615712565b80601f0160208091040260200160405190810160405280929190818152602001828054610b9c90615712565b8015610be95780601f10610bbe57610100808354040283529160200191610be9565b820191906000526020600020905b815481529060010190602001808311610bcc57829003601f168201915b505050505090806004018054610bfe90615712565b80601f0160208091040260200160405190810160405280929190818152602001828054610c2a90615712565b8015610c775780601f10610c4c57610100808354040283529160200191610c77565b820191906000526020600020905b815481529060010190602001808311610c5a57829003601f168201915b505050505090806005018054610c8c90615712565b80601f0160208091040260200160405190810160405280929190818152602001828054610cb890615712565b8015610d055780601f10610cda57610100808354040283529160200191610d05565b820191906000526020600020905b815481529060010190602001808311610ce857829003601f168201915b5050505050908060060160009054906101000a900473ffffffffffffffffffffffffffffffffffffffff1690806007018054610d4090615712565b80601f0160208091040260200160405190810160405280929190818152602001828054610d6c90615712565b8015610db95780601f10610d8e57610100808354040283529160200191610db9565b820191906000526020600020905b815481529060010190602001808311610d9c57829003601f168201915b5050505050905088565b60008054906101000a900473ffffffffffffffffffffffffffffffffffffffff1673ffffffffffffffffffffffffffffffffffffffff163373ffffffffffffffffffffffffffffffffffffffff1614610e51576040517f08c379a0000000000000000000000000000000000000000000000000000000008152600401610e48906157b6565b60405180910390fd5b60005b600380549050811015610fde578173ffffffffffffffffffffffffffffffffffffffff1660038281548110610e8c57610e8b6157d6565b5b9060005260206000200160009054906101000a900473ffffffffffffffffffffffffffffffffffffffff1673ffffffffffffffffffffffffffffffffffffffff161415610fcb5760036001600380549050610ee79190615834565b81548110610ef857610ef76157d6565b5b9060005260206000200160009054906101000a900473ffffffffffffffffffffffffffffffffffffffff1660038281548110610f3757610f366157d6565b5b9060005260206000200160006101000a81548173ffffffffffffffffffffffffffffffffffffffff021916908373ffffffffffffffffffffffffffffffffffffffff1602179055506003805480610f9157610f90615868565b5b6001900381819060005260206000200160006101000a81549073ffffffffffffffffffffffffffffffffffffffff02191690559055610fde565b8080610fd690615897565b915050610e54565b5050565b60026020528060005260406000206000915090508060000160009054906101000a900473ffffffffffffffffffffffffffffffffffffffff169080600101805461102b90615712565b80601f016020809104026020016040519081016040528092919081815260200182805461105790615712565b80156110a45780601f10611079576101008083540402835291602001916110a4565b820191906000526020600020905b81548152906001019060200180831161108757829003601f168201915b5050505050905082565b60008060009054906101000a900473ffffffffffffffffffffffffffffffffffffffff1673ffffffffffffffffffffffffffffffffffffffff168273ffffffffffffffffffffffffffffffffffffffff16149050919050565b6060600060045467ffffffffffffffff81111561112757611126614e6d565b5b60405190808252806020026020018201604052801561116057816020015b61114d6145b6565b8152602001906001900390816111455790505b5090506000805b6003805490508110156114f257600560006003838154811061118c5761118b6157d6565b5b9060005260206000200160009054906101000a900473ffffffffffffffffffffffffffffffffffffffff1673ffffffffffffffffffffffffffffffffffffffff1673ffffffffffffffffffffffffffffffffffffffff16815260200190815260200160002060030160009054906101000a900460ff16156114df57600560006003838154811061121f5761121e6157d6565b5b9060005260206000200160009054906101000a900473ffffffffffffffffffffffffffffffffffffffff1673ffffffffffffffffffffffffffffffffffffffff1673ffffffffffffffffffffffffffffffffffffffff1681526020019081526020016000206040518060a00160405290816000820160009054906101000a900473ffffffffffffffffffffffffffffffffffffffff1673ffffffffffffffffffffffffffffffffffffffff1673ffffffffffffffffffffffffffffffffffffffff1681526020016001820180546112f590615712565b80601f016020809104026020016040519081016040528092919081815260200182805461132190615712565b801561136e5780601f106113435761010080835404028352916020019161136e565b820191906000526020600020905b81548152906001019060200180831161135157829003601f168201915b5050505050815260200160028201805461138790615712565b80601f01602080910402602001604051908101604052809291908181526020018280546113b390615712565b80156114005780601f106113d557610100808354040283529160200191611400565b820191906000526020600020905b8154815290600101906020018083116113e357829003601f168201915b505050505081526020016003820160009054906101000a900460ff16151515158152602001600482018054806020026020016040519081016040528092919081815260200182805480156114a957602002820191906000526020600020905b8160009054906101000a900473ffffffffffffffffffffffffffffffffffffffff1673ffffffffffffffffffffffffffffffffffffffff168152602001906001019080831161145f575b5050505050815250508383815181106114c5576114c46157d6565b5b602002602001018190525081806114db90615897565b9250505b80806114ea90615897565b915050611167565b50819250505090565b3373ffffffffffffffffffffffffffffffffffffffff16600560003373ffffffffffffffffffffffffffffffffffffffff1673ffffffffffffffffffffffffffffffffffffffff16815260200190815260200160002060000160009054906101000a900473ffffffffffffffffffffffffffffffffffffffff1673ffffffffffffffffffffffffffffffffffffffff16146115cb576040517f08c379a00000000000000000000000000000000000000000000000000000000081526004016115c29061592c565b60405180910390fd5b6040518060400160405280600581526020017f66616c7365000000000000000000000000000000000000000000000000000000815250600660008373ffffffffffffffffffffffffffffffffffffffff1673ffffffffffffffffffffffffffffffffffffffff16815260200190815260200160002060050190805190602001906116569291906145fd565b5050565b6003818154811061166a57600080fd5b906000526020600020016000915054906101000a900473ffffffffffffffffffffffffffffffffffffffff1681565b606060008054906101000a900473ffffffffffffffffffffffffffffffffffffffff1673ffffffffffffffffffffffffffffffffffffffff163373ffffffffffffffffffffffffffffffffffffffff1614611729576040517f08c379a0000000000000000000000000000000000000000000000000000000008152600401611720906157b6565b60405180910390fd5b600060038054905067ffffffffffffffff81111561174a57611749614e6d565b5b60405190808252806020026020018201604052801561178357816020015b6117706145b6565b8152602001906001900390816117685790505b50905060005b600380549050811015611b055760056000600383815481106117ae576117ad6157d6565b5b9060005260206000200160009054906101000a900473ffffffffffffffffffffffffffffffffffffffff1673ffffffffffffffffffffffffffffffffffffffff1673ffffffffffffffffffffffffffffffffffffffff16815260200190815260200160002060030160009054906101000a900460ff16611af25760056000600383815481106118405761183f6157d6565b5b9060005260206000200160009054906101000a900473ffffffffffffffffffffffffffffffffffffffff1673ffffffffffffffffffffffffffffffffffffffff1673ffffffffffffffffffffffffffffffffffffffff1681526020019081526020016000206040518060a00160405290816000820160009054906101000a900473ffffffffffffffffffffffffffffffffffffffff1673ffffffffffffffffffffffffffffffffffffffff1673ffffffffffffffffffffffffffffffffffffffff16815260200160018201805461191690615712565b80601f016020809104026020016040519081016040528092919081815260200182805461194290615712565b801561198f5780601f106119645761010080835404028352916020019161198f565b820191906000526020600020905b81548152906001019060200180831161197257829003601f168201915b505050505081526020016002820180546119a890615712565b80601f01602080910402602001604051908101604052809291908181526020018280546119d490615712565b8015611a215780601f106119f657610100808354040283529160200191611a21565b820191906000526020600020905b815481529060010190602001808311611a0457829003601f168201915b505050505081526020016003820160009054906101000a900460ff1615151515815260200160048201805480602002602001604051908101604052809291908181526020018280548015611aca57602002820191906000526020600020905b8160009054906101000a900473ffffffffffffffffffffffffffffffffffffffff1673ffffffffffffffffffffffffffffffffffffffff1681526020019060010190808311611a80575b505050505081525050828281518110611ae657611ae56157d6565b5b60200260200101819052505b8080611afd90615897565b915050611789565b508091505090565b3373ffffffffffffffffffffffffffffffffffffffff16600560003373ffffffffffffffffffffffffffffffffffffffff1673ffffffffffffffffffffffffffffffffffffffff16815260200190815260200160002060000160009054906101000a900473ffffffffffffffffffffffffffffffffffffffff1673ffffffffffffffffffffffffffffffffffffffff1614611bdd576040517f08c379a0000000000000000000000000000000000000000000000000000000008152600401611bd49061592c565b60405180910390fd5b80600660008473ffffffffffffffffffffffffffffffffffffffff1673ffffffffffffffffffffffffffffffffffffffff1681526020019081526020016000206007019080519060200190611c339291906145fd565b505050565b60008054906101000a900473ffffffffffffffffffffffffffffffffffffffff1673ffffffffffffffffffffffffffffffffffffffff163373ffffffffffffffffffffffffffffffffffffffff1614611cc6576040517f08c379a0000000000000000000000000000000000000000000000000000000008152600401611cbd906157b6565b60405180910390fd5b6001600560008373ffffffffffffffffffffffffffffffffffffffff1673ffffffffffffffffffffffffffffffffffffffff16815260200190815260200160002060030160006101000a81548160ff02191690831515021790555060046000815480929190611d3490615897565b919050555050565b60056020528060005260406000206000915090508060000160009054906101000a900473ffffffffffffffffffffffffffffffffffffffff1690806001018054611d8590615712565b80601f0160208091040260200160405190810160405280929190818152602001828054611db190615712565b8015611dfe5780601f10611dd357610100808354040283529160200191611dfe565b820191906000526020600020905b815481529060010190602001808311611de157829003601f168201915b505050505090806002018054611e1390615712565b80601f0160208091040260200160405190810160405280929190818152602001828054611e3f90615712565b8015611e8c5780601f10611e6157610100808354040283529160200191611e8c565b820191906000526020600020905b815481529060010190602001808311611e6f57829003601f168201915b5050505050908060030160009054906101000a900460ff16905084565b3373ffffffffffffffffffffffffffffffffffffffff16600660003373ffffffffffffffffffffffffffffffffffffffff1673ffffffffffffffffffffffffffffffffffffffff16815260200190815260200160002060000160009054906101000a900473ffffffffffffffffffffffffffffffffffffffff1673ffffffffffffffffffffffffffffffffffffffff161415611f7a576040517f08c379a0000000000000000000000000000000000000000000000000000000008152600401611f7190615998565b60405180910390fd5b6040518061010001604052803373ffffffffffffffffffffffffffffffffffffffff1681526020018781526020018681526020018581526020018481526020016040518060400160405280600581526020017f66616c736500000000000000000000000000000000000000000000000000000081525081526020018373ffffffffffffffffffffffffffffffffffffffff16815260200182815250600660003373ffffffffffffffffffffffffffffffffffffffff1673ffffffffffffffffffffffffffffffffffffffff16815260200190815260200160002060008201518160000160006101000a81548173ffffffffffffffffffffffffffffffffffffffff021916908373ffffffffffffffffffffffffffffffffffffffff16021790555060208201518160010190805190602001906120b79291906145fd565b5060408201518160020190805190602001906120d49291906145fd565b5060608201518160030190805190602001906120f19291906145fd565b50608082015181600401908051906020019061210e9291906145fd565b5060a082015181600501908051906020019061212b9291906145fd565b5060c08201518160060160006101000a81548173ffffffffffffffffffffffffffffffffffffffff021916908373ffffffffffffffffffffffffffffffffffffffff16021790555060e082015181600701908051906020019061218f9291906145fd565b50905050600560008373ffffffffffffffffffffffffffffffffffffffff1673ffffffffffffffffffffffffffffffffffffffff168152602001908152602001600020600401339080600181540180825580915050600190039060005260206000200160009091909190916101000a81548173ffffffffffffffffffffffffffffffffffffffff021916908373ffffffffffffffffffffffffffffffffffffffff160217905550505050505050565b60606007805480602002602001604051908101604052809291908181526020016000905b828210156123dc57838290600052602060002090600402016040518060800160405290816000820160009054906101000a900473ffffffffffffffffffffffffffffffffffffffff1673ffffffffffffffffffffffffffffffffffffffff1673ffffffffffffffffffffffffffffffffffffffff1681526020016001820160009054906101000a900473ffffffffffffffffffffffffffffffffffffffff1673ffffffffffffffffffffffffffffffffffffffff1673ffffffffffffffffffffffffffffffffffffffff1681526020016002820154815260200160038201805461234b90615712565b80601f016020809104026020016040519081016040528092919081815260200182805461237790615712565b80156123c45780601f10612399576101008083540402835291602001916123c4565b820191906000526020600020905b8154815290600101906020018083116123a757829003601f168201915b50505050508152505081526020019060010190612262565b50505050905090565b600781815481106123f557600080fd5b90600052602060002090600402016000915090508060000160009054906101000a900473ffffffffffffffffffffffffffffffffffffffff16908060010160009054906101000a900473ffffffffffffffffffffffffffffffffffffffff169080600201549080600301805461246a90615712565b80601f016020809104026020016040519081016040528092919081815260200182805461249690615712565b80156124e35780601f106124b8576101008083540402835291602001916124e3565b820191906000526020600020905b8154815290600101906020018083116124c657829003601f168201915b5050505050905084565b3373ffffffffffffffffffffffffffffffffffffffff16600560003373ffffffffffffffffffffffffffffffffffffffff1673ffffffffffffffffffffffffffffffffffffffff16815260200190815260200160002060000160009054906101000a900473ffffffffffffffffffffffffffffffffffffffff1673ffffffffffffffffffffffffffffffffffffffff16146125bd576040517f08c379a00000000000000000000000000000000000000000000000000000000081526004016125b49061592c565b60405180910390fd5b600560003373ffffffffffffffffffffffffffffffffffffffff1673ffffffffffffffffffffffffffffffffffffffff168152602001908152602001600020600401819080600181540180825580915050600190039060005260206000200160009091909190916101000a81548173ffffffffffffffffffffffffffffffffffffffff021916908373ffffffffffffffffffffffffffffffffffffffff16021790555050565b60085481565b3373ffffffffffffffffffffffffffffffffffffffff16600560003373ffffffffffffffffffffffffffffffffffffffff1673ffffffffffffffffffffffffffffffffffffffff16815260200190815260200160002060000160009054906101000a900473ffffffffffffffffffffffffffffffffffffffff1673ffffffffffffffffffffffffffffffffffffffff16141561273a576040517f08c379a000000000000000000000000000000000000000000000000000000000815260040161273190615a04565b60405180910390fd5b6040518060a001604052803373ffffffffffffffffffffffffffffffffffffffff168152602001838152602001828152602001600015158152602001600067ffffffffffffffff81111561279157612790614e6d565b5b6040519080825280602002602001820160405280156127bf5781602001602082028036833780820191505090505b50815250600560003373ffffffffffffffffffffffffffffffffffffffff1673ffffffffffffffffffffffffffffffffffffffff16815260200190815260200160002060008201518160000160006101000a81548173ffffffffffffffffffffffffffffffffffffffff021916908373ffffffffffffffffffffffffffffffffffffffff16021790555060208201518160010190805190602001906128659291906145fd565b5060408201518160020190805190602001906128829291906145fd565b5060608201518160030160006101000a81548160ff02191690831515021790555060808201518160040190805190602001906128bf929190614683565b509050506003339080600181540180825580915050600190039060005260206000200160009091909190916101000a81548173ffffffffffffffffffffffffffffffffffffffff021916908373ffffffffffffffffffffffffffffffffffffffff1602179055505050565b60603373ffffffffffffffffffffffffffffffffffffffff16600560003373ffffffffffffffffffffffffffffffffffffffff1673ffffffffffffffffffffffffffffffffffffffff16815260200190815260200160002060000160009054906101000a900473ffffffffffffffffffffffffffffffffffffffff1673ffffffffffffffffffffffffffffffffffffffff16146129fc576040517f08c379a00000000000000000000000000000000000000000000000000000000081526004016129f39061592c565b60405180910390fd5b6000600560008473ffffffffffffffffffffffffffffffffffffffff1673ffffffffffffffffffffffffffffffffffffffff1681526020019081526020016000206004018054905067ffffffffffffffff811115612a5d57612a5c614e6d565b5b604051908082528060200260200182016040528015612a9657816020015b612a8361470d565b815260200190600190039081612a7b5790505b50905060005b600560008573ffffffffffffffffffffffffffffffffffffffff1673ffffffffffffffffffffffffffffffffffffffff16815260200190815260200160002060040180549050811015612ffb5760066000600560008773ffffffffffffffffffffffffffffffffffffffff1673ffffffffffffffffffffffffffffffffffffffff1681526020019081526020016000206004018381548110612b4157612b406157d6565b5b9060005260206000200160009054906101000a900473ffffffffffffffffffffffffffffffffffffffff1673ffffffffffffffffffffffffffffffffffffffff1673ffffffffffffffffffffffffffffffffffffffff168152602001908152602001600020604051806101000160405290816000820160009054906101000a900473ffffffffffffffffffffffffffffffffffffffff1673ffffffffffffffffffffffffffffffffffffffff1673ffffffffffffffffffffffffffffffffffffffff168152602001600182018054612c1890615712565b80601f0160208091040260200160405190810160405280929190818152602001828054612c4490615712565b8015612c915780601f10612c6657610100808354040283529160200191612c91565b820191906000526020600020905b815481529060010190602001808311612c7457829003601f168201915b50505050508152602001600282018054612caa90615712565b80601f0160208091040260200160405190810160405280929190818152602001828054612cd690615712565b8015612d235780601f10612cf857610100808354040283529160200191612d23565b820191906000526020600020905b815481529060010190602001808311612d0657829003601f168201915b50505050508152602001600382018054612d3c90615712565b80601f0160208091040260200160405190810160405280929190818152602001828054612d6890615712565b8015612db55780601f10612d8a57610100808354040283529160200191612db5565b820191906000526020600020905b815481529060010190602001808311612d9857829003601f168201915b50505050508152602001600482018054612dce90615712565b80601f0160208091040260200160405190810160405280929190818152602001828054612dfa90615712565b8015612e475780601f10612e1c57610100808354040283529160200191612e47565b820191906000526020600020905b815481529060010190602001808311612e2a57829003601f168201915b50505050508152602001600582018054612e6090615712565b80601f0160208091040260200160405190810160405280929190818152602001828054612e8c90615712565b8015612ed95780601f10612eae57610100808354040283529160200191612ed9565b820191906000526020600020905b815481529060010190602001808311612ebc57829003601f168201915b505050505081526020016006820160009054906101000a900473ffffffffffffffffffffffffffffffffffffffff1673ffffffffffffffffffffffffffffffffffffffff1673ffffffffffffffffffffffffffffffffffffffff168152602001600782018054612f4890615712565b80601f0160208091040260200160405190810160405280929190818152602001828054612f7490615712565b8015612fc15780601f10612f9657610100808354040283529160200191612fc1565b820191906000526020600020905b815481529060010190602001808311612fa457829003601f168201915b505050505081525050828281518110612fdd57612fdc6157d6565b5b60200260200101819052508080612ff390615897565b915050612a9c565b5080915050919050565b60608060608060006060600660008873ffffffffffffffffffffffffffffffffffffffff1673ffffffffffffffffffffffffffffffffffffffff168152602001908152602001600020600101600660008973ffffffffffffffffffffffffffffffffffffffff1673ffffffffffffffffffffffffffffffffffffffff168152602001908152602001600020600201600660008a73ffffffffffffffffffffffffffffffffffffffff1673ffffffffffffffffffffffffffffffffffffffff168152602001908152602001600020600301600660008b73ffffffffffffffffffffffffffffffffffffffff1673ffffffffffffffffffffffffffffffffffffffff168152602001908152602001600020600401600660008c73ffffffffffffffffffffffffffffffffffffffff1673ffffffffffffffffffffffffffffffffffffffff16815260200190815260200160002060060160009054906101000a900473ffffffffffffffffffffffffffffffffffffffff16600660008d73ffffffffffffffffffffffffffffffffffffffff1673ffffffffffffffffffffffffffffffffffffffff1681526020019081526020016000206007018580546131c890615712565b80601f01602080910402602001604051908101604052809291908181526020018280546131f490615712565b80156132415780601f1061321657610100808354040283529160200191613241565b820191906000526020600020905b81548152906001019060200180831161322457829003601f168201915b5050505050955084805461325490615712565b80601f016020809104026020016040519081016040528092919081815260200182805461328090615712565b80156132cd5780601f106132a2576101008083540402835291602001916132cd565b820191906000526020600020905b8154815290600101906020018083116132b057829003601f168201915b505050505094508380546132e090615712565b80601f016020809104026020016040519081016040528092919081815260200182805461330c90615712565b80156133595780601f1061332e57610100808354040283529160200191613359565b820191906000526020600020905b81548152906001019060200180831161333c57829003601f168201915b5050505050935082805461336c90615712565b80601f016020809104026020016040519081016040528092919081815260200182805461339890615712565b80156133e55780601f106133ba576101008083540402835291602001916133e5565b820191906000526020600020905b8154815290600101906020018083116133c857829003601f168201915b505050505092508080546133f890615712565b80601f016020809104026020016040519081016040528092919081815260200182805461342490615712565b80156134715780601f1061344657610100808354040283529160200191613471565b820191906000526020600020905b81548152906001019060200180831161345457829003601f168201915b5050505050905095509550955095509550955091939550919395565b60608060608060608573ffffffffffffffffffffffffffffffffffffffff16600560008873ffffffffffffffffffffffffffffffffffffffff1673ffffffffffffffffffffffffffffffffffffffff16815260200190815260200160002060000160009054906101000a900473ffffffffffffffffffffffffffffffffffffffff1673ffffffffffffffffffffffffffffffffffffffff1614613565576040517f08c379a000000000000000000000000000000000000000000000000000000000815260040161355c9061592c565b60405180910390fd5b600560008773ffffffffffffffffffffffffffffffffffffffff1673ffffffffffffffffffffffffffffffffffffffff16815260200190815260200160002060030160009054906101000a900460ff166135f4576040517f08c379a00000000000000000000000000000000000000000000000000000000081526004016135eb90615a70565b60405180910390fd5b600560008773ffffffffffffffffffffffffffffffffffffffff1673ffffffffffffffffffffffffffffffffffffffff168152602001908152602001600020600101600560008873ffffffffffffffffffffffffffffffffffffffff1673ffffffffffffffffffffffffffffffffffffffff168152602001908152602001600020600201600560008973ffffffffffffffffffffffffffffffffffffffff1673ffffffffffffffffffffffffffffffffffffffff168152602001908152602001600020600401805490506040516020016136ce9190615ab1565b604051602081830303815290604052600560008a73ffffffffffffffffffffffffffffffffffffffff1673ffffffffffffffffffffffffffffffffffffffff16815260200190815260200160002060000160009054906101000a900473ffffffffffffffffffffffffffffffffffffffff166040516020016137509190615b14565b604051602081830303815290604052600560008b73ffffffffffffffffffffffffffffffffffffffff1673ffffffffffffffffffffffffffffffffffffffff168152602001908152602001600020600401805490506040516020016137b59190615ab1565b6040516020818303038152906040528480546137d090615712565b80601f01602080910402602001604051908101604052809291908181526020018280546137fc90615712565b80156138495780601f1061381e57610100808354040283529160200191613849565b820191906000526020600020905b81548152906001019060200180831161382c57829003601f168201915b5050505050945083805461385c90615712565b80601f016020809104026020016040519081016040528092919081815260200182805461388890615712565b80156138d55780601f106138aa576101008083540402835291602001916138d5565b820191906000526020600020905b8154815290600101906020018083116138b857829003601f168201915b505050505093509450945094509450945091939590929450565b3373ffffffffffffffffffffffffffffffffffffffff16600560003373ffffffffffffffffffffffffffffffffffffffff1673ffffffffffffffffffffffffffffffffffffffff16815260200190815260200160002060000160009054906101000a900473ffffffffffffffffffffffffffffffffffffffff1673ffffffffffffffffffffffffffffffffffffffff16146139bf576040517f08c379a00000000000000000000000000000000000000000000000000000000081526004016139b69061592c565b60405180910390fd5b6040518060400160405280600481526020017f7472756500000000000000000000000000000000000000000000000000000000815250600660008373ffffffffffffffffffffffffffffffffffffffff1673ffffffffffffffffffffffffffffffffffffffff1681526020019081526020016000206005019080519060200190613a4a9291906145fd565b5050565b3373ffffffffffffffffffffffffffffffffffffffff16600660003373ffffffffffffffffffffffffffffffffffffffff1673ffffffffffffffffffffffffffffffffffffffff16815260200190815260200160002060000160009054906101000a900473ffffffffffffffffffffffffffffffffffffffff1673ffffffffffffffffffffffffffffffffffffffff1614613b1e576040517f08c379a0000000000000000000000000000000000000000000000000000000008152600401613b1590615ba1565b60405180910390fd5b8273ffffffffffffffffffffffffffffffffffffffff16600660008573ffffffffffffffffffffffffffffffffffffffff1673ffffffffffffffffffffffffffffffffffffffff16815260200190815260200160002060000160009054906101000a900473ffffffffffffffffffffffffffffffffffffffff1673ffffffffffffffffffffffffffffffffffffffff1614613bee576040517f08c379a0000000000000000000000000000000000000000000000000000000008152600401613be590615c0d565b60405180910390fd5b604051602001613bfd90615c84565b60405160208183030381529060405280519060200120600660008573ffffffffffffffffffffffffffffffffffffffff1673ffffffffffffffffffffffffffffffffffffffff168152602001908152602001600020600501604051602001613c659190615d2d565b6040516020818303038152906040528051906020012014613cbb576040517f08c379a0000000000000000000000000000000000000000000000000000000008152600401613cb290615d90565b60405180910390fd5b3373ffffffffffffffffffffffffffffffffffffffff16600560003373ffffffffffffffffffffffffffffffffffffffff1673ffffffffffffffffffffffffffffffffffffffff16815260200190815260200160002060000160009054906101000a900473ffffffffffffffffffffffffffffffffffffffff1673ffffffffffffffffffffffffffffffffffffffff161415613d8c576040517f08c379a0000000000000000000000000000000000000000000000000000000008152600401613d8390615dfc565b60405180910390fd5b8273ffffffffffffffffffffffffffffffffffffffff16600560008573ffffffffffffffffffffffffffffffffffffffff1673ffffffffffffffffffffffffffffffffffffffff16815260200190815260200160002060000160009054906101000a900473ffffffffffffffffffffffffffffffffffffffff1673ffffffffffffffffffffffffffffffffffffffff161415613e5d576040517f08c379a0000000000000000000000000000000000000000000000000000000008152600401613e5490615e68565b60405180910390fd5b600760405180608001604052803373ffffffffffffffffffffffffffffffffffffffff1681526020018573ffffffffffffffffffffffffffffffffffffffff16815260200184815260200183815250908060018154018082558091505060019003906000526020600020906004020160009091909190915060008201518160000160006101000a81548173ffffffffffffffffffffffffffffffffffffffff021916908373ffffffffffffffffffffffffffffffffffffffff16021790555060208201518160010160006101000a81548173ffffffffffffffffffffffffffffffffffffffff021916908373ffffffffffffffffffffffffffffffffffffffff160217905550604082015181600201556060820151816003019080519060200190613f899291906145fd565b50505060086000815480929190613f9f90615897565b9190505550505050565b60603373ffffffffffffffffffffffffffffffffffffffff16600660003373ffffffffffffffffffffffffffffffffffffffff1673ffffffffffffffffffffffffffffffffffffffff16815260200190815260200160002060000160009054906101000a900473ffffffffffffffffffffffffffffffffffffffff1673ffffffffffffffffffffffffffffffffffffffff161461407b576040517f08c379a000000000000000000000000000000000000000000000000000000000815260040161407290615ba1565b60405180910390fd5b600060085467ffffffffffffffff81111561409957614098614e6d565b5b6040519080825280602002602001820160405280156140d257816020015b6140bf61477e565b8152602001906001900390816140b75790505b5090506000805b60085481101561438c573373ffffffffffffffffffffffffffffffffffffffff166007828154811061410e5761410d6157d6565b5b906000526020600020906004020160000160009054906101000a900473ffffffffffffffffffffffffffffffffffffffff1673ffffffffffffffffffffffffffffffffffffffff1614806141d257503373ffffffffffffffffffffffffffffffffffffffff1660078281548110614188576141876157d6565b5b906000526020600020906004020160010160009054906101000a900473ffffffffffffffffffffffffffffffffffffffff1673ffffffffffffffffffffffffffffffffffffffff16145b1561437957600781815481106141eb576141ea6157d6565b5b90600052602060002090600402016040518060800160405290816000820160009054906101000a900473ffffffffffffffffffffffffffffffffffffffff1673ffffffffffffffffffffffffffffffffffffffff1673ffffffffffffffffffffffffffffffffffffffff1681526020016001820160009054906101000a900473ffffffffffffffffffffffffffffffffffffffff1673ffffffffffffffffffffffffffffffffffffffff1673ffffffffffffffffffffffffffffffffffffffff168152602001600282015481526020016003820180546142ca90615712565b80601f01602080910402602001604051908101604052809291908181526020018280546142f690615712565b80156143435780601f1061431857610100808354040283529160200191614343565b820191906000526020600020905b81548152906001019060200180831161432657829003601f168201915b50505050508152505083838151811061435f5761435e6157d6565b5b6020026020010181905250818061437590615897565b9250505b808061438490615897565b9150506140d9565b50819250505090565b60603373ffffffffffffffffffffffffffffffffffffffff16600560003373ffffffffffffffffffffffffffffffffffffffff1673ffffffffffffffffffffffffffffffffffffffff16815260200190815260200160002060000160009054906101000a900473ffffffffffffffffffffffffffffffffffffffff1673ffffffffffffffffffffffffffffffffffffffff1614614467576040517f08c379a000000000000000000000000000000000000000000000000000000000815260040161445e9061592c565b60405180910390fd5b600560003373ffffffffffffffffffffffffffffffffffffffff1673ffffffffffffffffffffffffffffffffffffffff16815260200190815260200160002060040180548060200260200160405190810160405280929190818152602001828054801561452957602002820191906000526020600020905b8160009054906101000a900473ffffffffffffffffffffffffffffffffffffffff1673ffffffffffffffffffffffffffffffffffffffff16815260200190600101908083116144df575b5050505050905090565b60008054906101000a900473ffffffffffffffffffffffffffffffffffffffff1681565b6000600160405160200161456b9190615d2d565b60405160208183030381529060405280519060200120826040516020016145929190615eb9565b60405160208183030381529060405280519060200120149050919050565b60045481565b6040518060a00160405280600073ffffffffffffffffffffffffffffffffffffffff1681526020016060815260200160608152602001600015158152602001606081525090565b82805461460990615712565b90600052602060002090601f01602090048101928261462b5760008555614672565b82601f1061464457805160ff1916838001178555614672565b82800160010185558215614672579182015b82811115614671578251825591602001919060010190614656565b5b50905061467f91906147d2565b5090565b8280548282559060005260206000209081019282156146fc579160200282015b828111156146fb5782518260006101000a81548173ffffffffffffffffffffffffffffffffffffffff021916908373ffffffffffffffffffffffffffffffffffffffff160217905550916020019190600101906146a3565b5b50905061470991906147d2565b5090565b604051806101000160405280600073ffffffffffffffffffffffffffffffffffffffff1681526020016060815260200160608152602001606081526020016060815260200160608152602001600073ffffffffffffffffffffffffffffffffffffffff168152602001606081525090565b6040518060800160405280600073ffffffffffffffffffffffffffffffffffffffff168152602001600073ffffffffffffffffffffffffffffffffffffffff16815260200160008152602001606081525090565b5b808211156147eb5760008160009055506001016147d3565b5090565b600081519050919050565b600082825260208201905092915050565b60005b8381101561482957808201518184015260208101905061480e565b83811115614838576000848401525b50505050565b6000601f19601f8301169050919050565b600061485a826147ef565b61486481856147fa565b935061487481856020860161480b565b61487d8161483e565b840191505092915050565b600060208201905081810360008301526148a2818461484f565b905092915050565b6000604051905090565b600080fd5b600080fd5b600073ffffffffffffffffffffffffffffffffffffffff82169050919050565b60006148e9826148be565b9050919050565b6148f9816148de565b811461490457600080fd5b50565b600081359050614916816148f0565b92915050565b600060208284031215614932576149316148b4565b5b600061494084828501614907565b91505092915050565b60008115159050919050565b61495e81614949565b82525050565b6000606082019050818103600083015261497e818661484f565b90508181036020830152614992818561484f565b90506149a16040830184614955565b949350505050565b600081519050919050565b600082825260208201905092915050565b6000819050602082019050919050565b6149de816148de565b82525050565b60006149f083836149d5565b60208301905092915050565b6000602082019050919050565b6000614a14826149a9565b614a1e81856149b4565b9350614a29836149c5565b8060005b83811015614a5a578151614a4188826149e4565b9750614a4c836149fc565b925050600181019050614a2d565b5085935050505092915050565b60006020820190508181036000830152614a818184614a09565b905092915050565b6000819050919050565b614a9c81614a89565b82525050565b6000602082019050614ab76000830184614a93565b92915050565b614ac6816148de565b82525050565b600061010082019050614ae2600083018b614abd565b8181036020830152614af4818a61484f565b90508181036040830152614b08818961484f565b90508181036060830152614b1c818861484f565b90508181036080830152614b30818761484f565b905081810360a0830152614b44818661484f565b9050614b5360c0830185614abd565b81810360e0830152614b65818461484f565b90509998505050505050505050565b6000604082019050614b896000830185614abd565b8181036020830152614b9b818461484f565b90509392505050565b6000602082019050614bb96000830184614955565b92915050565b600081519050919050565b600082825260208201905092915050565b6000819050602082019050919050565b600082825260208201905092915050565b6000614c07826147ef565b614c118185614beb565b9350614c2181856020860161480b565b614c2a8161483e565b840191505092915050565b614c3e81614949565b82525050565b600082825260208201905092915050565b6000614c60826149a9565b614c6a8185614c44565b9350614c75836149c5565b8060005b83811015614ca6578151614c8d88826149e4565b9750614c98836149fc565b925050600181019050614c79565b5085935050505092915050565b600060a083016000830151614ccb60008601826149d5565b5060208301518482036020860152614ce38282614bfc565b91505060408301518482036040860152614cfd8282614bfc565b9150506060830151614d126060860182614c35565b5060808301518482036080860152614d2a8282614c55565b9150508091505092915050565b6000614d438383614cb3565b905092915050565b6000602082019050919050565b6000614d6382614bbf565b614d6d8185614bca565b935083602082028501614d7f85614bdb565b8060005b85811015614dbb5784840389528151614d9c8582614d37565b9450614da783614d4b565b925060208a01995050600181019050614d83565b50829750879550505050505092915050565b60006020820190508181036000830152614de78184614d58565b905092915050565b614df881614a89565b8114614e0357600080fd5b50565b600081359050614e1581614def565b92915050565b600060208284031215614e3157614e306148b4565b5b6000614e3f84828501614e06565b91505092915050565b6000602082019050614e5d6000830184614abd565b92915050565b600080fd5b600080fd5b7f4e487b7100000000000000000000000000000000000000000000000000000000600052604160045260246000fd5b614ea58261483e565b810181811067ffffffffffffffff82111715614ec457614ec3614e6d565b5b80604052505050565b6000614ed76148aa565b9050614ee38282614e9c565b919050565b600067ffffffffffffffff821115614f0357614f02614e6d565b5b614f0c8261483e565b9050602081019050919050565b82818337600083830152505050565b6000614f3b614f3684614ee8565b614ecd565b905082815260208101848484011115614f5757614f56614e68565b5b614f62848285614f19565b509392505050565b600082601f830112614f7f57614f7e614e63565b5b8135614f8f848260208601614f28565b91505092915050565b60008060408385031215614faf57614fae6148b4565b5b6000614fbd85828601614907565b925050602083013567ffffffffffffffff811115614fde57614fdd6148b9565b5b614fea85828601614f6a565b9150509250929050565b60006080820190506150096000830187614abd565b818103602083015261501b818661484f565b9050818103604083015261502f818561484f565b905061503e6060830184614955565b95945050505050565b60008060008060008060c08789031215615064576150636148b4565b5b600087013567ffffffffffffffff811115615082576150816148b9565b5b61508e89828a01614f6a565b965050602087013567ffffffffffffffff8111156150af576150ae6148b9565b5b6150bb89828a01614f6a565b955050604087013567ffffffffffffffff8111156150dc576150db6148b9565b5b6150e889828a01614f6a565b945050606087013567ffffffffffffffff811115615109576151086148b9565b5b61511589828a01614f6a565b935050608061512689828a01614907565b92505060a087013567ffffffffffffffff811115615147576151466148b9565b5b61515389828a01614f6a565b9150509295509295509295565b600081519050919050565b600082825260208201905092915050565b6000819050602082019050919050565b61519581614a89565b82525050565b60006080830160008301516151b360008601826149d5565b5060208301516151c660208601826149d5565b5060408301516151d9604086018261518c565b50606083015184820360608601526151f18282614bfc565b9150508091505092915050565b600061520a838361519b565b905092915050565b6000602082019050919050565b600061522a82615160565b615234818561516b565b9350836020820285016152468561517c565b8060005b85811015615282578484038952815161526385826151fe565b945061526e83615212565b925060208a0199505060018101905061524a565b50829750879550505050505092915050565b600060208201905081810360008301526152ae818461521f565b905092915050565b60006080820190506152cb6000830187614abd565b6152d86020830186614abd565b6152e56040830185614a93565b81810360608301526152f7818461484f565b905095945050505050565b60008060408385031215615319576153186148b4565b5b600083013567ffffffffffffffff811115615337576153366148b9565b5b61534385828601614f6a565b925050602083013567ffffffffffffffff811115615364576153636148b9565b5b61537085828601614f6a565b9150509250929050565b600081519050919050565b600082825260208201905092915050565b6000819050602082019050919050565b6000610100830160008301516153bf60008601826149d5565b50602083015184820360208601526153d78282614bfc565b915050604083015184820360408601526153f18282614bfc565b9150506060830151848203606086015261540b8282614bfc565b915050608083015184820360808601526154258282614bfc565b91505060a083015184820360a086015261543f8282614bfc565b91505060c083015161545460c08601826149d5565b5060e083015184820360e086015261546c8282614bfc565b9150508091505092915050565b600061548583836153a6565b905092915050565b6000602082019050919050565b60006154a58261537a565b6154af8185615385565b9350836020820285016154c185615396565b8060005b858110156154fd57848403895281516154de8582615479565b94506154e98361548d565b925060208a019950506001810190506154c5565b50829750879550505050505092915050565b60006020820190508181036000830152615529818461549a565b905092915050565b600060c082019050818103600083015261554b818961484f565b9050818103602083015261555f818861484f565b90508181036040830152615573818761484f565b90508181036060830152615587818661484f565b90506155966080830185614abd565b81810360a08301526155a8818461484f565b9050979650505050505050565b600060a08201905081810360008301526155cf818861484f565b905081810360208301526155e3818761484f565b905081810360408301526155f7818661484f565b9050818103606083015261560b818561484f565b9050818103608083015261561f818461484f565b90509695505050505050565b600080600060608486031215615644576156436148b4565b5b600061565286828701614907565b935050602061566386828701614e06565b925050604084013567ffffffffffffffff811115615684576156836148b9565b5b61569086828701614f6a565b9150509250925092565b6000602082840312156156b0576156af6148b4565b5b600082013567ffffffffffffffff8111156156ce576156cd6148b9565b5b6156da84828501614f6a565b91505092915050565b7f4e487b7100000000000000000000000000000000000000000000000000000000600052602260045260246000fd5b6000600282049050600182168061572a57607f821691505b6020821081141561573e5761573d6156e3565b5b50919050565b7f4f6e6c792061646d696e2063616e2063616c6c20746869732066756e6374696f60008201527f6e00000000000000000000000000000000000000000000000000000000000000602082015250565b60006157a06021836147fa565b91506157ab82615744565b604082019050919050565b600060208201905081810360008301526157cf81615793565b9050919050565b7f4e487b7100000000000000000000000000000000000000000000000000000000600052603260045260246000fd5b7f4e487b7100000000000000000000000000000000000000000000000000000000600052601160045260246000fd5b600061583f82614a89565b915061584a83614a89565b92508282101561585d5761585c615805565b5b828203905092915050565b7f4e487b7100000000000000000000000000000000000000000000000000000000600052603160045260246000fd5b60006158a282614a89565b91507fffffffffffffffffffffffffffffffffffffffffffffffffffffffffffffffff8214156158d5576158d4615805565b5b600182019050919050565b7f4f6e6c792062616e6b2063616e2063616c6c20746869732066756e6374696f6e600082015250565b60006159166020836147fa565b9150615921826158e0565b602082019050919050565b6000602082019050818103600083015261594581615909565b9050919050565b7f437573746f6d657220616c726561647920657869737473000000000000000000600082015250565b60006159826017836147fa565b915061598d8261594c565b602082019050919050565b600060208201905081810360008301526159b181615975565b9050919050565b7f42616e6b20616c72656164792065786973747300000000000000000000000000600082015250565b60006159ee6013836147fa565b91506159f9826159b8565b602082019050919050565b60006020820190508181036000830152615a1d816159e1565b9050919050565b7f42616e6b206e6f74207665726966696564000000000000000000000000000000600082015250565b6000615a5a6011836147fa565b9150615a6582615a24565b602082019050919050565b60006020820190508181036000830152615a8981615a4d565b9050919050565b6000819050919050565b615aab615aa682614a89565b615a90565b82525050565b6000615abd8284615a9a565b60208201915081905092915050565b60008160601b9050919050565b6000615ae482615acc565b9050919050565b6000615af682615ad9565b9050919050565b615b0e615b09826148de565b615aeb565b82525050565b6000615b208284615afd565b60148201915081905092915050565b7f4f6e6c7920637573746f6d65722063616e2063616c6c20746869732066756e6360008201527f74696f6e00000000000000000000000000000000000000000000000000000000602082015250565b6000615b8b6024836147fa565b9150615b9682615b2f565b604082019050919050565b60006020820190508181036000830152615bba81615b7e565b9050919050565b7f526563697069656e7420646f6573206e6f742065786973740000000000000000600082015250565b6000615bf76018836147fa565b9150615c0282615bc1565b602082019050919050565b60006020820190508181036000830152615c2681615bea565b9050919050565b600081905092915050565b7f7472756500000000000000000000000000000000000000000000000000000000600082015250565b6000615c6e600483615c2d565b9150615c7982615c38565b600482019050919050565b6000615c8f82615c61565b9150819050919050565b60008190508160005260206000209050919050565b60008154615cbb81615712565b615cc58186615c2d565b94506001821660008114615ce05760018114615cf157615d24565b60ff19831686528186019350615d24565b615cfa85615c99565b60005b83811015615d1c57815481890152600182019150602081019050615cfd565b838801955050505b50505092915050565b6000615d398284615cae565b915081905092915050565b7f526563697069656e74206e6f7420766572696669656400000000000000000000600082015250565b6000615d7a6016836147fa565b9150615d8582615d44565b602082019050919050565b60006020820190508181036000830152615da981615d6d565b9050919050565b7f53656e6465722063616e6e6f7420626520612062616e6b000000000000000000600082015250565b6000615de66017836147fa565b9150615df182615db0565b602082019050919050565b60006020820190508181036000830152615e1581615dd9565b9050919050565b7f526563697069656e742063616e6e6f7420626520612062616e6b000000000000600082015250565b6000615e52601a836147fa565b9150615e5d82615e1c565b602082019050919050565b60006020820190508181036000830152615e8181615e45565b9050919050565b6000615e93826147ef565b615e9d8185615c2d565b9350615ead81856020860161480b565b80840191505092915050565b6000615ec58284615e88565b91508190509291505056fea2646970667358221220b366c988a5a2ecd058a53695315f9bde44f39860c174458481256ea03ecfdf3f64736f6c63430008090033",
  "linkReferences": {},
  "deployedLinkReferences": {}
}